{
  "contractName": "WallToken",
  "abi": [
    {
      "inputs": [
        {
          "internalType": "contract IERC20",
          "name": "_wftmAddress",
          "type": "address"
        }
      ],
      "stateMutability": "nonpayable",
      "type": "constructor"
    },
    {
      "anonymous": false,
      "inputs": [
        {
          "indexed": true,
          "internalType": "address",
          "name": "owner",
          "type": "address"
        },
        {
          "indexed": true,
          "internalType": "address",
          "name": "approved",
          "type": "address"
        },
        {
          "indexed": true,
          "internalType": "uint256",
          "name": "tokenId",
          "type": "uint256"
        }
      ],
      "name": "Approval",
      "type": "event"
    },
    {
      "anonymous": false,
      "inputs": [
        {
          "indexed": true,
          "internalType": "address",
          "name": "owner",
          "type": "address"
        },
        {
          "indexed": true,
          "internalType": "address",
          "name": "operator",
          "type": "address"
        },
        {
          "indexed": false,
          "internalType": "bool",
          "name": "approved",
          "type": "bool"
        }
      ],
      "name": "ApprovalForAll",
      "type": "event"
    },
    {
      "anonymous": false,
      "inputs": [
        {
          "indexed": true,
          "internalType": "address",
          "name": "previousOwner",
          "type": "address"
        },
        {
          "indexed": true,
          "internalType": "address",
          "name": "newOwner",
          "type": "address"
        }
      ],
      "name": "OwnershipTransferred",
      "type": "event"
    },
    {
      "anonymous": false,
      "inputs": [
        {
          "indexed": true,
          "internalType": "address",
          "name": "from",
          "type": "address"
        },
        {
          "indexed": true,
          "internalType": "address",
          "name": "to",
          "type": "address"
        },
        {
          "indexed": true,
          "internalType": "uint256",
          "name": "tokenId",
          "type": "uint256"
        }
      ],
      "name": "Transfer",
      "type": "event"
    },
    {
      "inputs": [
        {
          "internalType": "address",
          "name": "to",
          "type": "address"
        },
        {
          "internalType": "uint256",
          "name": "tokenId",
          "type": "uint256"
        }
      ],
      "name": "approve",
      "outputs": [],
      "stateMutability": "nonpayable",
      "type": "function"
    },
    {
      "inputs": [
        {
          "internalType": "address",
          "name": "owner",
          "type": "address"
        }
      ],
      "name": "balanceOf",
      "outputs": [
        {
          "internalType": "uint256",
          "name": "",
          "type": "uint256"
        }
      ],
      "stateMutability": "view",
      "type": "function",
      "constant": true
    },
    {
      "inputs": [],
      "name": "baseURI",
      "outputs": [
        {
          "internalType": "string",
          "name": "",
          "type": "string"
        }
      ],
      "stateMutability": "view",
      "type": "function",
      "constant": true
    },
    {
      "inputs": [
        {
          "internalType": "uint256",
          "name": "tokenId",
          "type": "uint256"
        }
      ],
      "name": "getApproved",
      "outputs": [
        {
          "internalType": "address",
          "name": "",
          "type": "address"
        }
      ],
      "stateMutability": "view",
      "type": "function",
      "constant": true
    },
    {
      "inputs": [
        {
          "internalType": "address",
          "name": "owner",
          "type": "address"
        },
        {
          "internalType": "address",
          "name": "operator",
          "type": "address"
        }
      ],
      "name": "isApprovedForAll",
      "outputs": [
        {
          "internalType": "bool",
          "name": "",
          "type": "bool"
        }
      ],
      "stateMutability": "view",
      "type": "function",
      "constant": true
    },
    {
      "inputs": [],
      "name": "manager",
      "outputs": [
        {
          "internalType": "address",
          "name": "",
          "type": "address"
        }
      ],
      "stateMutability": "view",
      "type": "function",
      "constant": true
    },
    {
      "inputs": [],
      "name": "name",
      "outputs": [
        {
          "internalType": "string",
          "name": "",
          "type": "string"
        }
      ],
      "stateMutability": "view",
      "type": "function",
      "constant": true
    },
    {
      "inputs": [],
      "name": "owner",
      "outputs": [
        {
          "internalType": "address",
          "name": "",
          "type": "address"
        }
      ],
      "stateMutability": "view",
      "type": "function",
      "constant": true
    },
    {
      "inputs": [
        {
          "internalType": "uint256",
          "name": "tokenId",
          "type": "uint256"
        }
      ],
      "name": "ownerOf",
      "outputs": [
        {
          "internalType": "address",
          "name": "",
          "type": "address"
        }
      ],
      "stateMutability": "view",
      "type": "function",
      "constant": true
    },
    {
      "inputs": [],
      "name": "renounceOwnership",
      "outputs": [],
      "stateMutability": "nonpayable",
      "type": "function"
    },
    {
      "inputs": [
        {
          "internalType": "address",
          "name": "from",
          "type": "address"
        },
        {
          "internalType": "address",
          "name": "to",
          "type": "address"
        },
        {
          "internalType": "uint256",
          "name": "tokenId",
          "type": "uint256"
        }
      ],
      "name": "safeTransferFrom",
      "outputs": [],
      "stateMutability": "nonpayable",
      "type": "function"
    },
    {
      "inputs": [
        {
          "internalType": "address",
          "name": "from",
          "type": "address"
        },
        {
          "internalType": "address",
          "name": "to",
          "type": "address"
        },
        {
          "internalType": "uint256",
          "name": "tokenId",
          "type": "uint256"
        },
        {
          "internalType": "bytes",
          "name": "_data",
          "type": "bytes"
        }
      ],
      "name": "safeTransferFrom",
      "outputs": [],
      "stateMutability": "nonpayable",
      "type": "function"
    },
    {
      "inputs": [
        {
          "internalType": "address",
          "name": "operator",
          "type": "address"
        },
        {
          "internalType": "bool",
          "name": "approved",
          "type": "bool"
        }
      ],
      "name": "setApprovalForAll",
      "outputs": [],
      "stateMutability": "nonpayable",
      "type": "function"
    },
    {
      "inputs": [
        {
          "internalType": "address",
          "name": "newManager",
          "type": "address"
        }
      ],
      "name": "setManager",
      "outputs": [],
      "stateMutability": "nonpayable",
      "type": "function"
    },
    {
      "inputs": [
        {
          "internalType": "bytes4",
          "name": "interfaceId",
          "type": "bytes4"
        }
      ],
      "name": "supportsInterface",
      "outputs": [
        {
          "internalType": "bool",
          "name": "",
          "type": "bool"
        }
      ],
      "stateMutability": "view",
      "type": "function",
      "constant": true
    },
    {
      "inputs": [],
      "name": "symbol",
      "outputs": [
        {
          "internalType": "string",
          "name": "",
          "type": "string"
        }
      ],
      "stateMutability": "view",
      "type": "function",
      "constant": true
    },
    {
      "inputs": [
        {
          "internalType": "uint256",
          "name": "index",
          "type": "uint256"
        }
      ],
      "name": "tokenByIndex",
      "outputs": [
        {
          "internalType": "uint256",
          "name": "",
          "type": "uint256"
        }
      ],
      "stateMutability": "view",
      "type": "function",
      "constant": true
    },
    {
      "inputs": [
        {
          "internalType": "address",
          "name": "owner",
          "type": "address"
        },
        {
          "internalType": "uint256",
          "name": "index",
          "type": "uint256"
        }
      ],
      "name": "tokenOfOwnerByIndex",
      "outputs": [
        {
          "internalType": "uint256",
          "name": "",
          "type": "uint256"
        }
      ],
      "stateMutability": "view",
      "type": "function",
      "constant": true
    },
    {
      "inputs": [
        {
          "internalType": "uint256",
          "name": "tokenId",
          "type": "uint256"
        }
      ],
      "name": "tokenURI",
      "outputs": [
        {
          "internalType": "string",
          "name": "",
          "type": "string"
        }
      ],
      "stateMutability": "view",
      "type": "function",
      "constant": true
    },
    {
      "inputs": [],
      "name": "totalSupply",
      "outputs": [
        {
          "internalType": "uint256",
          "name": "",
          "type": "uint256"
        }
      ],
      "stateMutability": "view",
      "type": "function",
      "constant": true
    },
    {
      "inputs": [
        {
          "internalType": "address",
          "name": "from",
          "type": "address"
        },
        {
          "internalType": "address",
          "name": "to",
          "type": "address"
        },
        {
          "internalType": "uint256",
          "name": "tokenId",
          "type": "uint256"
        }
      ],
      "name": "transferFrom",
      "outputs": [],
      "stateMutability": "nonpayable",
      "type": "function"
    },
    {
      "inputs": [
        {
          "internalType": "address",
          "name": "newOwner",
          "type": "address"
        }
      ],
      "name": "transferOwnership",
      "outputs": [],
      "stateMutability": "nonpayable",
      "type": "function"
    },
    {
      "inputs": [],
      "name": "getTotalPieces",
      "outputs": [
        {
          "internalType": "uint256",
          "name": "",
          "type": "uint256"
        }
      ],
      "stateMutability": "view",
      "type": "function",
      "constant": true
    },
    {
      "inputs": [
        {
          "internalType": "address",
          "name": "newAddress",
          "type": "address"
        }
      ],
      "name": "setMarketAddress",
      "outputs": [],
      "stateMutability": "nonpayable",
      "type": "function"
    },
    {
      "inputs": [
        {
          "internalType": "uint256",
          "name": "tokenId",
          "type": "uint256"
        },
        {
          "internalType": "string",
          "name": "_newuri",
          "type": "string"
        }
      ],
      "name": "setURI",
      "outputs": [],
      "stateMutability": "nonpayable",
      "type": "function"
    },
    {
      "inputs": [
        {
          "internalType": "uint256",
          "name": "_id",
          "type": "uint256"
        }
      ],
      "name": "getURI",
      "outputs": [
        {
          "internalType": "string",
          "name": "_uri",
          "type": "string"
        }
      ],
      "stateMutability": "view",
      "type": "function",
      "constant": true
    },
    {
      "inputs": [
        {
          "internalType": "uint256",
          "name": "_id",
          "type": "uint256"
        }
      ],
      "name": "getPiece",
      "outputs": [
        {
          "internalType": "uint256",
          "name": "id",
          "type": "uint256"
        },
        {
          "internalType": "string",
          "name": "name",
          "type": "string"
        },
        {
          "internalType": "address",
          "name": "artist",
          "type": "address"
        },
        {
          "internalType": "string",
          "name": "uri",
          "type": "string"
        },
        {
          "internalType": "address",
          "name": "currentOwner",
          "type": "address"
        },
        {
          "internalType": "uint256",
          "name": "royalties",
          "type": "uint256"
        },
        {
          "internalType": "uint256",
          "name": "salePrice",
          "type": "uint256"
        },
        {
          "internalType": "bool",
          "name": "onSale",
          "type": "bool"
        },
        {
          "internalType": "bool",
          "name": "acceptsBids",
          "type": "bool"
        }
      ],
      "stateMutability": "view",
      "type": "function",
      "constant": true
    },
    {
      "inputs": [
        {
          "internalType": "uint256",
          "name": "_id",
          "type": "uint256"
        }
      ],
      "name": "getLastBidOnPiece",
      "outputs": [
        {
          "internalType": "uint256",
          "name": "bidAmount",
          "type": "uint256"
        },
        {
          "internalType": "address",
          "name": "bidder",
          "type": "address"
        }
      ],
      "stateMutability": "view",
      "type": "function",
      "constant": true
    },
    {
      "inputs": [
        {
          "internalType": "string",
          "name": "_name",
          "type": "string"
        },
        {
          "internalType": "string",
          "name": "_uri",
          "type": "string"
        },
        {
          "internalType": "uint256",
          "name": "_royalties",
          "type": "uint256"
        },
        {
          "internalType": "uint256",
          "name": "_salePrice",
          "type": "uint256"
        },
        {
          "internalType": "bool",
          "name": "_ONSALE",
          "type": "bool"
        },
        {
          "internalType": "bool",
          "name": "_ACCEPTBIDS",
          "type": "bool"
        }
      ],
      "name": "mintPiece",
      "outputs": [
        {
          "internalType": "uint256",
          "name": "",
          "type": "uint256"
        }
      ],
      "stateMutability": "nonpayable",
      "type": "function"
    },
    {
      "inputs": [
        {
          "internalType": "uint256",
          "name": "_id",
          "type": "uint256"
        },
        {
          "internalType": "address",
          "name": "_bidder",
          "type": "address"
        },
        {
          "internalType": "uint256",
          "name": "_bidAmount",
          "type": "uint256"
        }
      ],
      "name": "placeBid",
      "outputs": [],
      "stateMutability": "nonpayable",
      "type": "function"
    },
    {
      "inputs": [
        {
          "internalType": "address",
          "name": "buyer",
          "type": "address"
        },
        {
          "internalType": "uint256",
          "name": "_id",
          "type": "uint256"
        }
      ],
      "name": "buyToken",
      "outputs": [],
      "stateMutability": "nonpayable",
      "type": "function"
    },
    {
      "inputs": [
        {
          "internalType": "uint256",
          "name": "_id",
          "type": "uint256"
        }
      ],
      "name": "acceptLastBid",
      "outputs": [],
      "stateMutability": "nonpayable",
      "type": "function"
    },
    {
      "inputs": [
        {
          "internalType": "uint256",
          "name": "_id",
          "type": "uint256"
        },
        {
          "internalType": "uint256",
          "name": "newSalePrice",
          "type": "uint256"
        }
      ],
      "name": "setNewSalePrice",
      "outputs": [],
      "stateMutability": "nonpayable",
      "type": "function"
    },
    {
      "inputs": [
        {
          "internalType": "uint256",
          "name": "_id",
          "type": "uint256"
        },
        {
          "internalType": "uint256",
          "name": "salePrice",
          "type": "uint256"
        }
      ],
      "name": "setOnSale",
      "outputs": [],
      "stateMutability": "nonpayable",
      "type": "function"
    }
  ],
  "bytecode": "0x60806040526001600d553480156200001657600080fd5b50604051620035563803806200355683398101604081905262000039916200027b565b6040518060400160405280600781526020016615d0531310549560ca1b8152506040518060400160405280600881526020016715d053130b50549560c21b81525060006200008c6200018060201b60201c565b600080546001600160a01b0319166001600160a01b0383169081178255604051929350917f8be0079c531659141344cd1fd0a4f28419497f9722a3daafe3b4186f6b6457e0908290a350620000e86301ffc9a760e01b62000184565b8151620000fd906009906020850190620001df565b5080516200011390600a906020840190620001df565b50620001266380ac58cd60e01b62000184565b62000138635b5e139f60e01b62000184565b6200014a63780e9d6360e01b62000184565b505060018054336001600160a01b031991821617909155600f80549091166001600160a01b0392909216919091179055620002e2565b3390565b6001600160e01b03198082161415620001ba5760405162461bcd60e51b8152600401620001b190620002ab565b60405180910390fd5b6001600160e01b0319166000908152600360205260409020805460ff19166001179055565b828054600181600116156101000203166002900490600052602060002090601f016020900481019282601f106200022257805160ff191683800117855562000252565b8280016001018555821562000252579182015b828111156200025257825182559160200191906001019062000235565b506200026092915062000264565b5090565b5b8082111562000260576000815560010162000265565b6000602082840312156200028d578081fd5b81516001600160a01b0381168114620002a4578182fd5b9392505050565b6020808252601c908201527f4552433136353a20696e76616c696420696e7465726661636520696400000000604082015260600190565b61326480620002f26000396000f3fe608060405234801561001057600080fd5b50600436106101c65760003560e01c80636b45c9f2116100fa578063a22cb4651161009d578063a22cb465146103b0578063b88d4fde146103c3578063c87b56dd146103d6578063d0ebdbe7146103e9578063d5e41ff7146103fc578063e985e9c51461040f578063f1e2f34814610422578063f2fde38b14610435578063fae9261214610448576101c6565b80636b45c9f21461032f5780636c0360eb1461035757806370a082311461035f578063715018a614610372578063862440e21461037a5780638da5cb5b1461038d57806395d89b41146103955780639e4e1deb1461039d576101c6565b806323b872dd1161016d57806323b872dd1461029a5780632f745c59146102ad5780632f9ab25e146102c057806342842e0e146102d3578063481c6a75146102e65780634dd3a1e4146102ee5780634f6ccce7146102f65780636352211e1461030957806368f8fc101461031c576101c6565b806301ffc9a7146101cb57806306fdde03146101f4578063081812fc14610209578063095ea7b3146102295780630b70bfb81461023e5780630b8d27c31461025f57806318160ddd146102725780631aa347dc14610287575b600080fd5b6101de6101d9366004612558565b61045b565b6040516101eb91906127fb565b60405180910390f35b6101fc61047e565b6040516101eb9190612806565b61021c61021736600461262a565b610514565b6040516101eb919061276c565b61023c610237366004612512565b610560565b005b61025161024c36600461262a565b6105f8565b6040516101eb9291906130e4565b61023c61026d3660046126d4565b61063a565b61027a61069f565b6040516101eb91906130db565b6101fc61029536600461262a565b6106b0565b61023c6102a8366004612433565b6106c1565b61027a6102bb366004612512565b6106f9565b61027a6102ce366004612590565b610722565b61023c6102e1366004612433565b61089f565b61021c6108ba565b61027a6108c9565b61027a61030436600461262a565b6108cf565b61021c61031736600461262a565b6108e5565b61023c61032a366004612512565b61090d565b61034261033d36600461262a565b610a64565b6040516101eb999897969594939291906130fb565b6101fc610b88565b61027a61036d3660046123e4565b610be9565b61023c610c32565b61023c61038836600461268f565b610cbb565b61021c610d1a565b6101fc610d29565b61023c6103ab36600461262a565b610d8a565b61023c6103be3660046124db565b610ef1565b61023c6103d1366004612473565b610fbf565b6101fc6103e436600461262a565b610ff8565b61023c6103f73660046123e4565b61113e565b61023c61040a3660046126d4565b61118a565b6101de61041d3660046123ff565b6111be565b61023c61043036600461265a565b6111ec565b61023c6104433660046123e4565b6112ed565b61023c6104563660046123e4565b6113ad565b6001600160e01b0319811660009081526003602052604090205460ff165b919050565b60098054604080516020601f600260001961010060018816150201909516949094049384018190048102820181019092528281526060939092909183018282801561050a5780601f106104df5761010080835404028352916020019161050a565b820191906000526020600020905b8154815290600101906020018083116104ed57829003601f168201915b5050505050905090565b600061051f826113f9565b6105445760405162461bcd60e51b815260040161053b90612cc3565b60405180910390fd5b506000908152600760205260409020546001600160a01b031690565b600061056b826108e5565b9050806001600160a01b0316836001600160a01b0316141561059f5760405162461bcd60e51b815260040161053b90612ec1565b806001600160a01b03166105b1611406565b6001600160a01b031614806105cd57506105cd8161041d611406565b6105e95760405162461bcd60e51b815260040161053b90612b69565b6105f3838361140a565b505050565b60008060006002848154811061060a57fe5b60009182526020909120600790910201600681015460059091015490956001600160a01b03909116945092505050565b600e546001600160a01b031633146106645760405162461bcd60e51b815260040161053b90612f02565b60006002838154811061067357fe5b9060005260206000209060070201905061068d8383611478565b600401805460ff191660011790555050565b60006106ab60056114a2565b905090565b60606106bb82610ff8565b92915050565b6106d26106cc611406565b826114ad565b6106ee5760405162461bcd60e51b815260040161053b90612f4d565b6105f3838383611532565b6001600160a01b038216600090815260046020526040812061071b9083611640565b9392505050565b600061072c612256565b506040805160e0810182528881523360208083019190915281830188905260608201879052851515608083015284151560a08301528251808401909352600080845283820181905260c0830193909352600280546001810182559352815180519293849360079091027f405787fa12a823e0f2b7631cc41b3ba8828b3321ca811111fa75cd3aa3bb5ace01926107c69284929101906122a5565b506020828101516001830180546001600160a01b03199081166001600160a01b0393841617909155604085015160028086019190915560608601516003860155608086015160048601805460a089015160ff199091169215159290921761ff0019166101009215159290920291909117905560c0909501518051600586018054909316931692909217905501516006909101555460001901610868338261164c565b6108728189610cbb565b6001851515141561089357600e54610893906001600160a01b031682610560565b50509695505050505050565b6105f383838360405180602001604052806000815250610fbf565b6001546001600160a01b031681565b60025490565b6000806108dd600584611666565b509392505050565b60006106bb826040518060600160405280602981526020016132066029913960059190611682565b600e546001600160a01b031633146109375760405162461bcd60e51b815260040161053b90612f02565b60006002828154811061094657fe5b6000918252602090912060046007909202019081015490915060ff1615156001146109835760405162461bcd60e51b815260040161053b90612a01565b3361098d83610514565b6001600160a01b0316146109b35760405162461bcd60e51b815260040161053b90613017565b6003810154600f54604051636eb1769f60e11b81526001600160a01b039091169063dd62ed3e906109ea9033903090600401612780565b60206040518083038186803b158015610a0257600080fd5b505afa158015610a16573d6000803e3d6000fd5b505050506040513d601f19601f82011682018060405250810190610a3a9190612642565b1015610a585760405162461bcd60e51b815260040161053b9061308e565b6105f38284600061168f565b600060606000606060008060008060008060028b81548110610a8257fe5b60009182526020918290206007919091020180546040805160026001841615610100026000190190931692909204601f81018590048502830185019091528082528e9d5091935091839190830182828015610b1e5780601f10610af357610100808354040283529160200191610b1e565b820191906000526020600020905b815481529060010190602001808311610b0157829003601f168201915b505050506001830154919a50506001600160a01b03169750610b3f8a6108e5565b600282015460038301546004840154929850909650945060ff169250610b648b610ff8565b96508060040160019054906101000a900460ff169150509193959799909294969850565b600c8054604080516020601f600260001961010060018816150201909516949094049384018190048102820181019092528281526060939092909183018282801561050a5780601f106104df5761010080835404028352916020019161050a565b60006001600160a01b038216610c115760405162461bcd60e51b815260040161053b90612bc1565b6001600160a01b03821660009081526004602052604090206106bb906114a2565b610c3a611406565b6001600160a01b0316610c4b610d1a565b6001600160a01b031614610c715760405162461bcd60e51b815260040161053b90612d5b565b600080546040516001600160a01b03909116907f8be0079c531659141344cd1fd0a4f28419497f9722a3daafe3b4186f6b6457e0908390a3600080546001600160a01b0319169055565b600060028381548110610cca57fe5b6000918252602090912060079091020160018101549091506001600160a01b0316338114610d0a5760405162461bcd60e51b815260040161053b90612fd5565b610d148484611a3a565b50505050565b6000546001600160a01b031690565b600a8054604080516020601f600260001961010060018816150201909516949094049384018190048102820181019092528281526060939092909183018282801561050a5780601f106104df5761010080835404028352916020019161050a565b600e546001600160a01b03163314610db45760405162461bcd60e51b815260040161053b90612f02565b600060028281548110610dc357fe5b90600052602060002090600702019050336001600160a01b0316610de683610514565b6001600160a01b031614610e0c5760405162461bcd60e51b815260040161053b90613017565b6003810154600f54604051636eb1769f60e11b81526001600160a01b039091169063dd62ed3e90610e439033903090600401612780565b60206040518083038186803b158015610e5b57600080fd5b505afa158015610e6f573d6000803e3d6000fd5b505050506040513d601f19601f82011682018060405250810190610e939190612642565b1015610eb15760405162461bcd60e51b815260040161053b9061308e565b6006810154610ed25760405162461bcd60e51b815260040161053b90613062565b6005810154610eed9083906001600160a01b0316600161168f565b5050565b610ef9611406565b6001600160a01b0316826001600160a01b03161415610f2a5760405162461bcd60e51b815260040161053b90612a7c565b8060086000610f37611406565b6001600160a01b03908116825260208083019390935260409182016000908120918716808252919093529120805460ff191692151592909217909155610f7b611406565b6001600160a01b03167f17307eab39ab6107e8899845ad3d59bd9653f200f220920489ca2b5937696c3183604051610fb391906127fb565b60405180910390a35050565b610fd0610fca611406565b836114ad565b610fec5760405162461bcd60e51b815260040161053b90612f4d565b610d1484848484611a7e565b6060611003826113f9565b61101f5760405162461bcd60e51b815260040161053b90612e72565b6000828152600b602090815260409182902080548351601f60026000196101006001861615020190931692909204918201849004840281018401909452808452606093928301828280156110b45780601f10611089576101008083540402835291602001916110b4565b820191906000526020600020905b81548152906001019060200180831161109757829003601f168201915b5050505050905060606110c5610b88565b90508051600014156110d957509050610479565b81511561110b5780826040516020016110f392919061273d565b60405160208183030381529060405292505050610479565b8061111585611ab1565b60405160200161112692919061273d565b60405160208183030381529060405292505050919050565b6001546001600160a01b031633146111685760405162461bcd60e51b815260040161053b90612dd5565b600180546001600160a01b0319166001600160a01b0392909216919091179055565b600e546001600160a01b031633146111b45760405162461bcd60e51b815260040161053b90612f02565b610eed8282611478565b6001600160a01b03918216600090815260086020908152604080832093909416825291909152205460ff1690565b600e546001600160a01b031633146112165760405162461bcd60e51b815260040161053b90612f02565b60006002848154811061122557fe5b6000918252602090912060046007909202019081015490915060ff1615156001146112625760405162461bcd60e51b815260040161053b90612a01565b600481015460ff6101009091041615156001146112915760405162461bcd60e51b815260040161053b90612d90565b600681015482116112b45760405162461bcd60e51b815260040161053b90612819565b6112bc612323565b6040518060400160405280856001600160a01b031681526020018481525090506112e68582611b8c565b5050505050565b6112f5611406565b6001600160a01b0316611306610d1a565b6001600160a01b03161461132c5760405162461bcd60e51b815260040161053b90612d5b565b6001600160a01b0381166113525760405162461bcd60e51b815260040161053b9061294d565b600080546040516001600160a01b03808516939216917f8be0079c531659141344cd1fd0a4f28419497f9722a3daafe3b4186f6b6457e091a3600080546001600160a01b0319166001600160a01b0392909216919091179055565b6001546001600160a01b031633146113d75760405162461bcd60e51b815260040161053b90612dd5565b600e80546001600160a01b0319166001600160a01b0392909216919091179055565b60006106bb600583611be1565b3390565b600081815260076020526040902080546001600160a01b0319166001600160a01b038416908117909155819061143f826108e5565b6001600160a01b03167f8c5be1e5ebec7d5bd14f71427d1e84f3dd0314c0f7b2291e5b200ac8c7c3b92560405160405180910390a45050565b60006002838154811061148757fe5b60009182526020909120600360079092020101919091555050565b60006106bb82611bed565b60006114b8826113f9565b6114d45760405162461bcd60e51b815260040161053b90612ae6565b60006114df836108e5565b9050806001600160a01b0316846001600160a01b0316148061151a5750836001600160a01b031661150f84610514565b6001600160a01b0316145b8061152a575061152a81856111be565b949350505050565b826001600160a01b0316611545826108e5565b6001600160a01b03161461156b5760405162461bcd60e51b815260040161053b90612e29565b6001600160a01b0382166115915760405162461bcd60e51b815260040161053b90612a38565b61159c8383836105f3565b6115a760008261140a565b6001600160a01b03831660009081526004602052604090206115c99082611bf1565b506001600160a01b03821660009081526004602052604090206115ec9082611bfd565b506115f960058284611c09565b5080826001600160a01b0316846001600160a01b03167fddf252ad1be2c89b69c2b068fc378daa952ba7f163c4a11628f55a4df523b3ef60405160405180910390a4505050565b600061071b8383611c1f565b610eed828260405180602001604052806000815250611c64565b60008080806116758686611c97565b9097909650945050505050565b600061152a848484611cf3565b60006002848154811061169e57fe5b9060005260206000209060070201905060006116b9856108e5565b9050826118855760006116e883600201546116e260648660030154611d5290919063ffffffff16565b90611d84565b9050600061170a600d546116e260648760030154611d5290919063ffffffff16565b9050600061172f83611729848860030154611dbe90919063ffffffff16565b90611dbe565b600386015490915061174b826117458686611de6565b90611de6565b146117685760405162461bcd60e51b815260040161053b906128ae565b600f546040516323b872dd60e01b81526001600160a01b03909116906323b872dd9061179c9033908890869060040161279a565b602060405180830381600087803b1580156117b657600080fd5b505af11580156117ca573d6000803e3d6000fd5b505050506040513d601f19601f820116820180604052508101906117ee919061253c565b50600f5460018601546040516323b872dd60e01b81526001600160a01b03928316926323b872dd9261182a92339290911690889060040161279a565b602060405180830381600087803b15801561184457600080fd5b505af1158015611858573d6000803e3d6000fd5b505050506040513d601f19601f8201168201806040525081019061187c919061253c565b50505050611a2f565b6002820154600683015460009161189c9190611d52565b905060006118c1600d546116e260648760050160010154611d5290919063ffffffff16565b905060006118e383611729848860050160010154611dbe90919063ffffffff16565b60068601549091506118f9826117458686611de6565b146119165760405162461bcd60e51b815260040161053b906128ae565b600f546040516323b872dd60e01b81526001600160a01b03909116906323b872dd9061194a9033908890869060040161279a565b602060405180830381600087803b15801561196457600080fd5b505af1158015611978573d6000803e3d6000fd5b505050506040513d601f19601f8201168201806040525081019061199c919061253c565b50600f5460018601546040516323b872dd60e01b81526001600160a01b03928316926323b872dd926119d892339290911690889060040161279a565b602060405180830381600087803b1580156119f257600080fd5b505af1158015611a06573d6000803e3d6000fd5b505050506040513d601f19601f82011682018060405250810190611a2a919061253c565b505050505b6112e68185876106c1565b611a43826113f9565b611a5f5760405162461bcd60e51b815260040161053b90612d0f565b6000828152600b6020908152604090912082516105f3928401906122a5565b611a89848484611532565b611a9584848484611e0b565b610d145760405162461bcd60e51b815260040161053b906128fb565b606081611ad657506040805180820190915260018152600360fc1b6020820152610479565b8160005b8115611aee57600101600a82049150611ada565b60608167ffffffffffffffff81118015611b0757600080fd5b506040519080825280601f01601f191660200182016040528015611b32576020820181803683370190505b50859350905060001982015b8315611b8357600a840660300160f81b82828060019003935081518110611b6157fe5b60200101906001600160f81b031916908160001a905350600a84049350611b3e565b50949350505050565b600060028381548110611b9b57fe5b60009182526020918290208451600792909202016005810180546001600160a01b0319166001600160a01b03909316929092179091559201516006909201919091555050565b600061071b8383611eea565b5490565b600061071b8383611f02565b600061071b8383611fc8565b600061152a84846001600160a01b038516612012565b81546000908210611c425760405162461bcd60e51b815260040161053b9061286c565b826000018281548110611c5157fe5b9060005260206000200154905092915050565b611c6e83836120a9565b611c7b6000848484611e0b565b6105f35760405162461bcd60e51b815260040161053b906128fb565b815460009081908310611cbc5760405162461bcd60e51b815260040161053b90612c0b565b6000846000018481548110611ccd57fe5b906000526020600020906002020190508060000154816001015492509250509250929050565b60008281526001840160205260408120548281611d235760405162461bcd60e51b815260040161053b9190612806565b50846000016001820381548110611d3657fe5b9060005260206000209060020201600101549150509392505050565b6000808211611d735760405162461bcd60e51b815260040161053b90612b32565b818381611d7c57fe5b049392505050565b600082611d93575060006106bb565b82820282848281611da057fe5b041461071b5760405162461bcd60e51b815260040161053b90612c82565b600082821115611de05760405162461bcd60e51b815260040161053b90612aaf565b50900390565b60008282018381101561071b5760405162461bcd60e51b815260040161053b906129ca565b6000611e1f846001600160a01b031661216d565b611e2b5750600161152a565b6060611eb3630a85bd0160e11b611e40611406565b888787604051602401611e5694939291906127be565b604051602081830303815290604052906001600160e01b0319166020820180516001600160e01b0383818316178352505050506040518060600160405280603281526020016131d4603291396001600160a01b0388169190612173565b9050600081806020019051810190611ecb9190612574565b6001600160e01b031916630a85bd0160e11b1492505050949350505050565b60009081526001919091016020526040902054151590565b60008181526001830160205260408120548015611fbe5783546000198083019190810190600090879083908110611f3557fe5b9060005260206000200154905080876000018481548110611f5257fe5b600091825260208083209091019290925582815260018981019092526040902090840190558654879080611f8257fe5b600190038181906000526020600020016000905590558660010160008781526020019081526020016000206000905560019450505050506106bb565b60009150506106bb565b6000611fd48383611eea565b61200a575081546001818101845560008481526020808220909301849055845484825282860190935260409020919091556106bb565b5060006106bb565b60008281526001840160205260408120548061207757505060408051808201825283815260208082018481528654600181810189556000898152848120955160029093029095019182559151908201558654868452818801909252929091205561071b565b8285600001600183038154811061208a57fe5b906000526020600020906002020160010181905550600091505061071b565b6001600160a01b0382166120cf5760405162461bcd60e51b815260040161053b90612c4d565b6120d8816113f9565b156120f55760405162461bcd60e51b815260040161053b90612993565b612101600083836105f3565b6001600160a01b03821660009081526004602052604090206121239082611bfd565b5061213060058284611c09565b5060405181906001600160a01b038416906000907fddf252ad1be2c89b69c2b068fc378daa952ba7f163c4a11628f55a4df523b3ef908290a45050565b3b151590565b606061152a8484600085856121878561216d565b6121a35760405162461bcd60e51b815260040161053b90612f9e565b60006060866001600160a01b031685876040516121c09190612721565b60006040518083038185875af1925050503d80600081146121fd576040519150601f19603f3d011682016040523d82523d6000602084013e612202565b606091505b509150915061221282828661221d565b979650505050505050565b6060831561222c57508161071b565b82511561223c5782518084602001fd5b8160405162461bcd60e51b815260040161053b9190612806565b6040518060e001604052806060815260200160006001600160a01b0316815260200160008152602001600081526020016000151581526020016000151581526020016122a0612323565b905290565b828054600181600116156101000203166002900490600052602060002090601f016020900481019282601f106122e657805160ff1916838001178555612313565b82800160010185558215612313579182015b828111156123135782518255916020019190600101906122f8565b5061231f92915061233a565b5090565b604080518082019091526000808252602082015290565b5b8082111561231f576000815560010161233b565b80356001600160a01b03811681146106bb57600080fd5b600082601f830112612376578081fd5b813567ffffffffffffffff8082111561238d578283fd5b604051601f8301601f1916810160200182811182821017156123ad578485fd5b6040528281529250828483016020018610156123c857600080fd5b8260208601602083013760006020848301015250505092915050565b6000602082840312156123f5578081fd5b61071b838361234f565b60008060408385031215612411578081fd5b61241b848461234f565b915061242a846020850161234f565b90509250929050565b600080600060608486031215612447578081fd5b833561245281613197565b9250602084013561246281613197565b929592945050506040919091013590565b60008060008060808587031215612488578081fd5b612492868661234f565b93506124a1866020870161234f565b925060408501359150606085013567ffffffffffffffff8111156124c3578182fd5b6124cf87828801612366565b91505092959194509250565b600080604083850312156124ed578182fd5b6124f7848461234f565b91506020830135612507816131af565b809150509250929050565b60008060408385031215612524578182fd5b61252e848461234f565b946020939093013593505050565b60006020828403121561254d578081fd5b815161071b816131af565b600060208284031215612569578081fd5b813561071b816131bd565b600060208284031215612585578081fd5b815161071b816131bd565b60008060008060008060c087890312156125a8578182fd5b863567ffffffffffffffff808211156125bf578384fd5b6125cb8a838b01612366565b975060208901359150808211156125e0578384fd5b506125ed89828a01612366565b9550506040870135935060608701359250608087013561260c816131af565b915060a087013561261c816131af565b809150509295509295509295565b60006020828403121561263b578081fd5b5035919050565b600060208284031215612653578081fd5b5051919050565b60008060006060848603121561266e578283fd5b8335925061267f856020860161234f565b9150604084013590509250925092565b600080604083850312156126a1578182fd5b82359150602083013567ffffffffffffffff8111156126be578182fd5b6126ca85828601612366565b9150509250929050565b600080604083850312156126e6578182fd5b50508035926020909101359150565b6000815180845261270d81602086016020860161316b565b601f01601f19169290920160200192915050565b6000825161273381846020870161316b565b9190910192915050565b6000835161274f81846020880161316b565b83519083019061276381836020880161316b565b01949350505050565b6001600160a01b0391909116815260200190565b6001600160a01b0392831681529116602082015260400190565b6001600160a01b039384168152919092166020820152604081019190915260600190565b6001600160a01b03858116825284166020820152604081018390526080606082018190526000906127f1908301846126f5565b9695505050505050565b901515815260200190565b60006020825261071b60208301846126f5565b60208082526033908201527f57414c4c544f4b454e3a20426964646572206d75737420626964206d6f7265206040820152721d1a185b881b185cdd08189a59105b5bdd5b9d606a1b606082015260800190565b60208082526022908201527f456e756d657261626c655365743a20696e646578206f7574206f6620626f756e604082015261647360f01b606082015260800190565b6020808252602d908201527f57414c4c544f4b454e3a20616d6f756e747320646f6e74206d6174636820757060408201526c20746f2073616c65707269636560981b606082015260800190565b60208082526032908201527f4552433732313a207472616e7366657220746f206e6f6e20455243373231526560408201527131b2b4bb32b91034b6b83632b6b2b73a32b960711b606082015260800190565b60208082526026908201527f4f776e61626c653a206e6577206f776e657220697320746865207a65726f206160408201526564647265737360d01b606082015260800190565b6020808252601c908201527f4552433732313a20746f6b656e20616c7265616479206d696e74656400000000604082015260600190565b6020808252601b908201527f536166654d6174683a206164646974696f6e206f766572666c6f770000000000604082015260600190565b6020808252601d908201527f57414c4c544f4b454e3a20546f6b656e206e6f7420666f722073616c65000000604082015260600190565b60208082526024908201527f4552433732313a207472616e7366657220746f20746865207a65726f206164646040820152637265737360e01b606082015260800190565b60208082526019908201527822a9219b99189d1030b8383937bb32903a379031b0b63632b960391b604082015260600190565b6020808252601e908201527f536166654d6174683a207375627472616374696f6e206f766572666c6f770000604082015260600190565b6020808252602c908201527f4552433732313a206f70657261746f7220717565727920666f72206e6f6e657860408201526b34b9ba32b73a103a37b5b2b760a11b606082015260800190565b6020808252601a908201527f536166654d6174683a206469766973696f6e206279207a65726f000000000000604082015260600190565b60208082526038908201527f4552433732313a20617070726f76652063616c6c6572206973206e6f74206f776040820152771b995c881b9bdc88185c1c1c9bdd995908199bdc88185b1b60421b606082015260800190565b6020808252602a908201527f4552433732313a2062616c616e636520717565727920666f7220746865207a65604082015269726f206164647265737360b01b606082015260800190565b60208082526022908201527f456e756d657261626c654d61703a20696e646578206f7574206f6620626f756e604082015261647360f01b606082015260800190565b6020808252818101527f4552433732313a206d696e7420746f20746865207a65726f2061646472657373604082015260600190565b60208082526021908201527f536166654d6174683a206d756c7469706c69636174696f6e206f766572666c6f6040820152607760f81b606082015260800190565b6020808252602c908201527f4552433732313a20617070726f76656420717565727920666f72206e6f6e657860408201526b34b9ba32b73a103a37b5b2b760a11b606082015260800190565b6020808252602c908201527f4552433732314d657461646174613a2055524920736574206f66206e6f6e657860408201526b34b9ba32b73a103a37b5b2b760a11b606082015260800190565b6020808252818101527f4f776e61626c653a2063616c6c6572206973206e6f7420746865206f776e6572604082015260600190565b60208082526025908201527f57414c4c544f4b454e3a20546f6b656e20646f6573206e6f7420616363657074604082015264206269647360d81b606082015260800190565b60208082526034908201527f457363726f7742757965723a204f6e6c7920746865206d616e61676572206361604082015273371031b0b636103a3434b990333ab731ba34b7b760611b606082015260800190565b60208082526029908201527f4552433732313a207472616e73666572206f6620746f6b656e2074686174206960408201526839903737ba1037bbb760b91b606082015260800190565b6020808252602f908201527f4552433732314d657461646174613a2055524920717565727920666f72206e6f60408201526e3732bc34b9ba32b73a103a37b5b2b760891b606082015260800190565b60208082526021908201527f4552433732313a20617070726f76616c20746f2063757272656e74206f776e656040820152603960f91b606082015260800190565b6020808252602b908201527f4f6e6c79204d61726b657420436f6e74726163742063616e2063616c6c20746860408201526a34b990333ab731ba34b7b760a91b606082015260800190565b60208082526031908201527f4552433732313a207472616e736665722063616c6c6572206973206e6f74206f6040820152701ddb995c881b9bdc88185c1c1c9bdd9959607a1b606082015260800190565b6020808252601d908201527f416464726573733a2063616c6c20746f206e6f6e2d636f6e7472616374000000604082015260600190565b60208082526022908201527f57414c4c544f4b454e3a204f4e4c59204152544953542043414e205345542055604082015261524960f01b606082015260800190565b6020808252602b908201527f57414c4c544f4b454e3a20546f6b656e206d75737420626520617070726f766560408201526a19081d1bc813505492d15560aa1b606082015260800190565b60208082526012908201527157414c4c544f4b454e3a204e4f204249445360701b604082015260600190565b6020808252602d908201527f57414c4c544f4b454e3a20455243323020746f6b656e206d757374206265206160408201526c1c1c1c9bdd995908199a5c9cdd609a1b606082015260800190565b90815260200190565b9182526001600160a01b0316602082015260400190565b60006101208b83528060208401526131158184018c6126f5565b6001600160a01b038b81166040860152848203606086015290915061313a828b6126f5565b98166080840152505060a081019490945260c0840192909252151560e0830152151561010090910152949350505050565b60005b8381101561318657818101518382015260200161316e565b83811115610d145750506000910152565b6001600160a01b03811681146131ac57600080fd5b50565b80151581146131ac57600080fd5b6001600160e01b0319811681146131ac57600080fdfe4552433732313a207472616e7366657220746f206e6f6e20455243373231526563656976657220696d706c656d656e7465724552433732313a206f776e657220717565727920666f72206e6f6e6578697374656e7420746f6b656ea2646970667358221220d105b412c96e60586fbd45bb3dae0baf053a819f52745cd9e0842dca9b4151c964736f6c63430007000033",
  "immutableReferences": {},
  "source": "// SPDX-License-Identifier: MIT\r\npragma experimental ABIEncoderV2;\r\npragma solidity 0.7.0;\r\n\r\nimport \"@openzeppelin/contracts/token/ERC721/ERC721.sol\";\r\nimport \"@openzeppelin/contracts/token/ERC20/IERC20.sol\";\r\nimport { WallBase, SafeMath } from \"./WallBase.sol\";\r\n\r\ncontract WallToken is WallBase, ERC721(\"WALLART\",\"WALL-ART\") { \r\n    using SafeMath for uint256;\r\n    uint BASE_MARKET_FEE = 1;\r\n    address WALL_MARKET_ADDRESS; \r\n    IERC20 wFTM; \r\n\r\n    constructor(\r\n        IERC20 _wftmAddress\r\n    ) {\r\n        manager = msg.sender;\r\n        wFTM = _wftmAddress;\r\n    }\r\n\r\n\r\n    /* ========== PUBLIC VIEW FUNCTION ========== */\r\n\r\n    function getTotalPieces() external view returns (uint256) {\r\n        return allPieces.length;\r\n    }\r\n\r\n    /* ======= MANAGER FUNCTIONS ===== */\r\n\r\n    function setMarketAddress (address newAddress) external onlyManager {\r\n        WALL_MARKET_ADDRESS = newAddress;\r\n    }\r\n\r\n    /**\r\n     * @dev Allow contract owner to update URI to look up all alpaca metadata\r\n     */\r\n    function setURI(uint256 tokenId, string memory _newuri) public  {\r\n        Piece storage _piece = allPieces[tokenId];\r\n        address artist = _piece.artist;\r\n        require(msg.sender == artist, 'WALLTOKEN: ONLY ARTIST CAN SET URI');\r\n        _setTokenURI(tokenId, _newuri);\r\n    }\r\n    \r\n    /* ========== VIEW FUNCTIONS ========== */\r\n\r\n    function getURI(uint _id) external view returns (string memory _uri) {\r\n        _uri = tokenURI(_id);\r\n    }\r\n\r\n\r\n    /**\r\n     * Returns all the relevant information about a specific bud.\r\n     * @param _id The ID of the bud of interest.\r\n     */\r\n    function getPiece(uint _id)\r\n        external\r\n        view\r\n        returns (\r\n            uint id,\r\n            string memory name,\r\n            address artist,\r\n            string memory uri,\r\n            address currentOwner,\r\n            uint royalties,\r\n            uint salePrice,\r\n            bool onSale,\r\n            bool acceptsBids\r\n        )\r\n    {\r\n        Piece storage piece = allPieces[_id];\r\n        id = _id;\r\n        name = piece.name;\r\n        artist = piece.artist;\r\n        currentOwner = ownerOf(id);\r\n        royalties = piece.royalties;\r\n        salePrice = piece.salePrice;\r\n        onSale = piece.onSale;\r\n        uri = tokenURI(_id);\r\n        acceptsBids = piece.acceptBids;\r\n    }\r\n\r\n    function getLastBidOnPiece(uint _id) public view returns (uint bidAmount, address bidder) {\r\n        Piece storage piece = allPieces[_id];\r\n        bidAmount = piece.lastBid.bidAmount;\r\n        bidder = piece.lastBid.bidder;\r\n    }\r\n\r\n    \r\n    /* ========== EXTERNAL MUTABLE FUNCTIONS ========== */\r\n\r\n    function mintPiece(\r\n        string memory _name,\r\n        string memory _uri,\r\n        uint _royalties,\r\n        uint _salePrice,\r\n        bool _ONSALE,\r\n        bool _ACCEPTBIDS\r\n    ) external returns(uint) {\r\n            \r\n            Piece memory _newPiece = Piece({\r\n                name: _name,\r\n                artist: msg.sender,\r\n                royalties: _royalties,\r\n                salePrice: _salePrice,\r\n                onSale: _ONSALE,\r\n                acceptBids: _ACCEPTBIDS,\r\n                lastBid: Bid({ \r\n                    bidder: 0x0000000000000000000000000000000000000000,\r\n                    bidAmount: 0\r\n                })\r\n            });\r\n        \r\n            allPieces.push(_newPiece);\r\n\r\n            uint Id = allPieces.length - 1;\r\n            // mint the token to this address\r\n            _safeMint(msg.sender, Id);\r\n            // set the URI to the one by the minter\r\n            setURI(Id, _uri);\r\n            if (_ONSALE == true) {\r\n                // approve the token to the market contract \r\n                approve(WALL_MARKET_ADDRESS, Id);  \r\n            }\r\n            \r\n    }\r\n\r\n    /* ========== MARKET MUTABLE FUNCTIONS ========== */\r\n\r\n    function placeBid(uint _id, address _bidder, uint _bidAmount) public onlyMarket {\r\n        Piece storage piece = allPieces[_id];\r\n        // doublecheck if token is on sale \r\n        require(piece.onSale == true, 'WALLTOKEN: Token not for sale');\r\n        require(piece.acceptBids == true, 'WALLTOKEN: Token does not accept bids');\r\n        require(piece.lastBid.bidAmount < _bidAmount, 'WALLTOKEN: Bidder must bid more than last bidAmount');\r\n        Bid memory newbid = Bid({\r\n            bidder: _bidder, \r\n            bidAmount: _bidAmount\r\n        });\r\n        _placeBid(_id, newbid);\r\n    }\r\n\r\n\r\n    function buyToken (address buyer, uint _id) public onlyMarket {\r\n        // doublecheck if token is approved to msg.sender == MARKET\r\n        Piece storage piece = allPieces[_id];\r\n        require(piece.onSale == true, 'WALLTOKEN: Token not for sale');\r\n        require( getApproved(_id) == msg.sender, 'WALLTOKEN: Token must be approved to MARKET');\r\n        require( wFTM.allowance(msg.sender, address(this)) >= piece.salePrice, 'WALLTOKEN: ERC20 token must be approved first');\r\n        _finalizeSale(_id, buyer, false);\r\n    }\r\n\r\n    function acceptLastBid(uint _id) public onlyMarket {\r\n        Piece storage piece = allPieces[_id];\r\n        require( getApproved(_id) == msg.sender, 'WALLTOKEN: Token must be approved to MARKET');\r\n        require( wFTM.allowance(msg.sender, address(this)) >= piece.salePrice, 'WALLTOKEN: ERC20 token must be approved first');\r\n        require( piece.lastBid.bidAmount != 0, 'WALLTOKEN: NO BIDS');\r\n        _finalizeSale(_id, piece.lastBid.bidder, true);\r\n    }\r\n\r\n    function setNewSalePrice (uint _id, uint newSalePrice) public onlyMarket {\r\n       setSalePrice(_id, newSalePrice);\r\n    }\r\n\r\n    function setOnSale (uint _id, uint salePrice) public onlyMarket {\r\n        Piece storage piece = allPieces[_id];\r\n        setSalePrice(_id, salePrice);\r\n        piece.onSale = true;   \r\n    }\r\n\r\n\r\n    \r\n    /* ========== INTERNAL FUNCTIONS ========== */\r\n\r\n    function setSalePrice (uint _id, uint newSalePrice) internal {\r\n        Piece storage piece = allPieces[_id];\r\n        piece.salePrice = newSalePrice; \r\n    }\r\n\r\n    function _placeBid (uint _id, Bid memory _bid) internal {\r\n        Piece storage piece = allPieces[_id];\r\n        piece.lastBid = _bid;\r\n    }\r\n\r\n    function _finalizeSale(uint _id, address _buyer ,bool isBid) internal {\r\n        Piece storage piece = allPieces[_id];\r\n        address owner = ownerOf(_id);\r\n        if (isBid == false) {\r\n\r\n             // get the amount we need to send to the artist \r\n            uint artistAmount = piece.salePrice.div(100).mul(piece.royalties); \r\n            // get the market fee \r\n            uint fee = piece.salePrice.div(100).mul(BASE_MARKET_FEE); //fee is 1%\r\n            // get the amount we need to send to the owner\r\n            uint owneramount = piece.salePrice.sub(fee).sub(artistAmount);\r\n\r\n            require(artistAmount.add(fee).add(owneramount) == piece.salePrice, 'WALLTOKEN: amounts dont match up to saleprice');\r\n\r\n            // transfer to owner - artist / keep the fee in the market contract\r\n            wFTM.transferFrom(msg.sender, owner, owneramount);\r\n            wFTM.transferFrom(msg.sender, piece.artist, artistAmount);\r\n\r\n        } else {\r\n\r\n             // get the amount we need to send to the artist \r\n            uint artistAmount = piece.lastBid.bidAmount.div(piece.royalties); \r\n            // get the market fee \r\n            uint fee = piece.lastBid.bidAmount.div(100).mul(BASE_MARKET_FEE); //fee is 1%\r\n            // get the amount we need to send to the owner\r\n            uint owneramount = piece.lastBid.bidAmount.sub(fee).sub(artistAmount);\r\n\r\n            require(artistAmount.add(fee).add(owneramount) == piece.lastBid.bidAmount, 'WALLTOKEN: amounts dont match up to saleprice');\r\n\r\n            // transfer to owner - artist / keep the fee in the market contract\r\n            wFTM.transferFrom(msg.sender, owner, owneramount);\r\n            wFTM.transferFrom(msg.sender, piece.artist, artistAmount);\r\n            \r\n        }\r\n        \r\n        // if all checks are okay transfer token from current owner to buyer\r\n        transferFrom(owner, _buyer, _id);\r\n\r\n       \r\n    }\r\n\r\n\r\n    /* ====== MODIFIERS ====== */\r\n    /*\r\n     *  The manager is the one that controls all the parameters of this contract except the withdrawl function\r\n     *  this is meant to be called by the Buyer only after the period has ended. \r\n     */\r\n    modifier onlyMarket() {\r\n        require(WALL_MARKET_ADDRESS == msg.sender, \"Only Market Contract can call this function\");\r\n        _; \r\n    }\r\n\r\n\r\n\r\n}\r\n\r\n",
  "sourcePath": "C:/Users/ROSTON/Documents/ETHEREUM-DEV/nft-wall/packages/truffle/contracts/WallToken.sol",
  "compiler": {
    "name": "solc",
    "version": "0.7.0+commit.9e61f92b.Emscripten.clang"
  },
  "schemaVersion": "3.3.3",
  "updatedAt": "2021-03-15T21:36:25.096Z",
  "networkType": "ethereum",
  "devdoc": {
    "kind": "dev",
    "methods": {
      "approve(address,uint256)": {
        "details": "See {IERC721-approve}."
      },
      "balanceOf(address)": {
        "details": "See {IERC721-balanceOf}."
      },
      "baseURI()": {
        "details": "Returns the base URI set via {_setBaseURI}. This will be automatically added as a prefix in {tokenURI} to each token's URI, or to the token ID if no specific URI is set for that token ID."
      },
      "getApproved(uint256)": {
        "details": "See {IERC721-getApproved}."
      },
      "getPiece(uint256)": {
        "params": {
          "_id": "The ID of the bud of interest."
        }
      },
      "isApprovedForAll(address,address)": {
        "details": "See {IERC721-isApprovedForAll}."
      },
      "name()": {
        "details": "See {IERC721Metadata-name}."
      },
      "owner()": {
        "details": "Returns the address of the current owner."
      },
      "ownerOf(uint256)": {
        "details": "See {IERC721-ownerOf}."
      },
      "renounceOwnership()": {
        "details": "Leaves the contract without owner. It will not be possible to call `onlyOwner` functions anymore. Can only be called by the current owner. NOTE: Renouncing ownership will leave the contract without an owner, thereby removing any functionality that is only available to the owner."
      },
      "safeTransferFrom(address,address,uint256)": {
        "details": "See {IERC721-safeTransferFrom}."
      },
      "safeTransferFrom(address,address,uint256,bytes)": {
        "details": "See {IERC721-safeTransferFrom}."
      },
      "setApprovalForAll(address,bool)": {
        "details": "See {IERC721-setApprovalForAll}."
      },
      "setURI(uint256,string)": {
        "details": "Allow contract owner to update URI to look up all alpaca metadata"
      },
      "supportsInterface(bytes4)": {
        "details": "See {IERC165-supportsInterface}. Time complexity O(1), guaranteed to always use less than 30 000 gas."
      },
      "symbol()": {
        "details": "See {IERC721Metadata-symbol}."
      },
      "tokenByIndex(uint256)": {
        "details": "See {IERC721Enumerable-tokenByIndex}."
      },
      "tokenOfOwnerByIndex(address,uint256)": {
        "details": "See {IERC721Enumerable-tokenOfOwnerByIndex}."
      },
      "tokenURI(uint256)": {
        "details": "See {IERC721Metadata-tokenURI}."
      },
      "totalSupply()": {
        "details": "See {IERC721Enumerable-totalSupply}."
      },
      "transferFrom(address,address,uint256)": {
        "details": "See {IERC721-transferFrom}."
      },
      "transferOwnership(address)": {
        "details": "Transfers ownership of the contract to a new account (`newOwner`). Can only be called by the current owner."
      }
    },
    "version": 1
  },
  "userdoc": {
    "kind": "user",
    "methods": {
      "getPiece(uint256)": {
        "notice": "Returns all the relevant information about a specific bud."
      }
    },
    "version": 1
  }
}