{
  "contractName": "WallMarket",
  "abi": [
    {
      "inputs": [
        {
          "internalType": "contract IWallToken",
          "name": "_wallToken",
          "type": "address"
        },
        {
          "internalType": "contract IERC20",
          "name": "_wftmAddress",
          "type": "address"
        }
      ],
      "stateMutability": "nonpayable",
      "type": "constructor"
    },
    {
      "inputs": [
        {
          "internalType": "uint256",
          "name": "_id",
          "type": "uint256"
        }
      ],
      "name": "buyPiece",
      "outputs": [],
      "stateMutability": "nonpayable",
      "type": "function"
    },
    {
      "inputs": [
        {
          "internalType": "uint256",
          "name": "_id",
          "type": "uint256"
        }
      ],
      "name": "acceptBidLastBidOnPiece",
      "outputs": [],
      "stateMutability": "nonpayable",
      "type": "function"
    },
    {
      "inputs": [
        {
          "internalType": "uint256",
          "name": "_id",
          "type": "uint256"
        },
        {
          "internalType": "uint256",
          "name": "_salePrice",
          "type": "uint256"
        }
      ],
      "name": "listPieceForSale",
      "outputs": [],
      "stateMutability": "nonpayable",
      "type": "function"
    },
    {
      "inputs": [
        {
          "internalType": "uint256",
          "name": "_id",
          "type": "uint256"
        },
        {
          "internalType": "uint256",
          "name": "_newSalePrice",
          "type": "uint256"
        }
      ],
      "name": "changeSalePrice",
      "outputs": [],
      "stateMutability": "nonpayable",
      "type": "function"
    },
    {
      "inputs": [
        {
          "internalType": "uint256",
          "name": "_id",
          "type": "uint256"
        },
        {
          "internalType": "uint256",
          "name": "_bidPrice",
          "type": "uint256"
        }
      ],
      "name": "placeBid",
      "outputs": [],
      "stateMutability": "nonpayable",
      "type": "function"
    },
    {
      "inputs": [
        {
          "internalType": "address",
          "name": "",
          "type": "address"
        },
        {
          "internalType": "address",
          "name": "",
          "type": "address"
        },
        {
          "internalType": "uint256",
          "name": "",
          "type": "uint256"
        },
        {
          "internalType": "bytes",
          "name": "",
          "type": "bytes"
        }
      ],
      "name": "onERC721Received",
      "outputs": [
        {
          "internalType": "bytes4",
          "name": "",
          "type": "bytes4"
        }
      ],
      "stateMutability": "nonpayable",
      "type": "function"
    }
  ],
  "bytecode": "0x6080604052601860015534801561001557600080fd5b506040516117e23803806117e28339818101604052604081101561003857600080fd5b508051602090910151600280546001600160a01b039384166001600160a01b031991821617909155600380549390921692169190911790556117638061007f6000396000f3fe608060405234801561001057600080fd5b50600436106100625760003560e01c8063150b7a021461006757806357c90de514610112578063c82e474b14610137578063cfb543061461015a578063e3f85bd214610177578063f05e3fa214610194575b600080fd5b6100f56004803603608081101561007d57600080fd5b6001600160a01b03823581169260208101359091169160408201359190810190608081016060820135600160201b8111156100b757600080fd5b8201836020820111156100c957600080fd5b803590602001918460018302840111600160201b831117156100ea57600080fd5b5090925090506101b7565b604080516001600160e01b03199092168252519081900360200190f35b6101356004803603604081101561012857600080fd5b50803590602001356101e1565b005b6101356004803603604081101561014d57600080fd5b5080359060200135610642565b6101356004803603602081101561017057600080fd5b503561076e565b6101356004803603602081101561018d57600080fd5b5035610d82565b610135600480360360408110156101aa57600080fd5b50803590602001356113a8565b7f150b7a023d4804d13e8c85fb27262cb750cf6ba9f9dd3bb30d90f482ceeb4b1f95945050505050565b600254604080516335a2e4f960e11b815260048101859052905160009283926001600160a01b0390911691636b45c9f2916024808201928692909190829003018186803b15801561023157600080fd5b505afa158015610245573d6000803e3d6000fd5b505050506040513d6000823e601f3d908101601f1916820160405261012081101561026f57600080fd5b815160208301805160405192949293830192919084600160201b82111561029557600080fd5b9083019060208201858111156102aa57600080fd5b8251600160201b8111828201881017156102c357600080fd5b82525081516020918201929091019080838360005b838110156102f05781810151838201526020016102d8565b50505050905090810190601f16801561031d5780820380516001836020036101000a031916815260200191505b50604081815260208301519201805192949193919284600160201b82111561034457600080fd5b90830190602082018581111561035957600080fd5b8251600160201b81118282018810171561037257600080fd5b82525081516020918201929091019080838360005b8381101561039f578181015183820152602001610387565b50505050905090810190601f1680156103cc5780820380516001836020036101000a031916815260200191505b50604052608081015160a090910151909850965050600187151514945061043f9350505050576040805162461bcd60e51b815260206004820152601c60248201527f4d41524b45543a20546f6b656e206973206e6f74206f6e2073616c6500000000604482015290519081900360640190fd5b6001811515146104805760405162461bcd60e51b81526004018080602001828103825260228152602001806115eb6022913960400191505060405180910390fd5b6002546040805163016e17f760e31b815260048101879052815160009384936001600160a01b0390911692630b70bfb89260248083019392829003018186803b1580156104cc57600080fd5b505afa1580156104e0573d6000803e3d6000fd5b505050506040513d60408110156104f657600080fd5b508051602090910151600154919350915082018086116105475760405162461bcd60e51b81526004018080602001828103825260288152602001806116756028913960400191505060405180910390fd5b6003546040805163095ea7b360e01b81523060048201526024810189905290516001600160a01b039092169163095ea7b3916044808201926020929091908290030181600087803b15801561059b57600080fd5b505af11580156105af573d6000803e3d6000fd5b505050506040513d60208110156105c557600080fd5b505060025460408051631e3c5e6960e31b8152600481018a90523360248201526044810189905290516001600160a01b039092169163f1e2f3489160648082019260009290919082900301818387803b15801561062157600080fd5b505af1158015610635573d6000803e3d6000fd5b5050505050505050505050565b600254604080516331a9108f60e11b815260048101859052905133926001600160a01b031691636352211e916024808301926020929190829003018186803b15801561068d57600080fd5b505afa1580156106a1573d6000803e3d6000fd5b505050506040513d60208110156106b757600080fd5b50516001600160a01b0316146106fe5760405162461bcd60e51b815260040180806020018281038252602181526020018061160d6021913960400191505060405180910390fd5b6002546040805163d5e41ff760e01b8152600481018590526024810184905290516001600160a01b039092169163d5e41ff79160448082019260009290919082900301818387803b15801561075257600080fd5b505af1158015610766573d6000803e3d6000fd5b505050505050565b600254604080516331a9108f60e11b815260048101849052905133926001600160a01b031691636352211e916024808301926020929190829003018186803b1580156107b957600080fd5b505afa1580156107cd573d6000803e3d6000fd5b505050506040513d60208110156107e357600080fd5b50516001600160a01b03161461082a5760405162461bcd60e51b815260040180806020018281038252602181526020018061160d6021913960400191505060405180910390fd5b6002546040805163020604bf60e21b815260048101849052905130926001600160a01b03169163081812fc916024808301926020929190829003018186803b15801561087557600080fd5b505afa158015610889573d6000803e3d6000fd5b505050506040513d602081101561089f57600080fd5b50516001600160a01b0316146108e65760405162461bcd60e51b81526004018080602001828103825260278152602001806115756027913960400191505060405180910390fd5b6002546040805163016e17f760e31b815260048101849052815160009384936001600160a01b0390911692630b70bfb89260248083019392829003018186803b15801561093257600080fd5b505afa158015610946573d6000803e3d6000fd5b505050506040513d604081101561095c57600080fd5b50805160209182015160035460408051636eb1769f60e11b81526001600160a01b0380851660048301523060248301529151949750929550869491169263dd62ed3e926044808201939291829003018186803b1580156109bb57600080fd5b505afa1580156109cf573d6000803e3d6000fd5b505050506040513d60208110156109e557600080fd5b50511015610a245760405162461bcd60e51b815260040180806020018281038252602381526020018061162e6023913960400191505060405180910390fd5b600354604080516370a0823160e01b81526001600160a01b0384811660048301529151859392909216916370a0823191602480820192602092909190829003018186803b158015610a7457600080fd5b505afa158015610a88573d6000803e3d6000fd5b505050506040513d6020811015610a9e57600080fd5b50511015610add5760405162461bcd60e51b81526004018080602001828103825260278152602001806116cb6027913960400191505060405180910390fd5b600354604080516370a0823160e01b815230600482015290516000926001600160a01b0316916370a08231916024808301926020929190829003018186803b158015610b2857600080fd5b505afa158015610b3c573d6000803e3d6000fd5b505050506040513d6020811015610b5257600080fd5b5051600354604080516323b872dd60e01b81526001600160a01b0386811660048301523060248301526044820188905291519394509116916323b872dd916064808201926020929091908290030181600087803b158015610bb257600080fd5b505af1158015610bc6573d6000803e3d6000fd5b505050506040513d6020811015610bdc57600080fd5b5050600354604080516370a0823160e01b81523060048201529051838601926001600160a01b0316916370a08231916024808301926020929190829003018186803b158015610c2a57600080fd5b505afa158015610c3e573d6000803e3d6000fd5b505050506040513d6020811015610c5457600080fd5b505114610c925760405162461bcd60e51b815260040180806020018281038252603c8152602001806116f2603c913960400191505060405180910390fd5b6003546002546040805163095ea7b360e01b81526001600160a01b039283166004820152602481018790529051919092169163095ea7b39160448083019260209291908290030181600087803b158015610ceb57600080fd5b505af1158015610cff573d6000803e3d6000fd5b505050506040513d6020811015610d1557600080fd5b505060025460408051639e4e1deb60e01b81526004810187905290516001600160a01b0390921691639e4e1deb9160248082019260009290919082900301818387803b158015610d6457600080fd5b505af1158015610d78573d6000803e3d6000fd5b5050505050505050565b600254604080516335a2e4f960e11b8152600481018490529051600092839283926001600160a01b0390921691636b45c9f2916024808201928692909190829003018186803b158015610dd457600080fd5b505afa158015610de8573d6000803e3d6000fd5b505050506040513d6000823e601f3d908101601f19168201604052610120811015610e1257600080fd5b815160208301805160405192949293830192919084600160201b821115610e3857600080fd5b908301906020820185811115610e4d57600080fd5b8251600160201b811182820188101715610e6657600080fd5b82525081516020918201929091019080838360005b83811015610e93578181015183820152602001610e7b565b50505050905090810190601f168015610ec05780820380516001836020036101000a031916815260200191505b50604081815260208301519201805192949193919284600160201b821115610ee757600080fd5b908301906020820185811115610efc57600080fd5b8251600160201b811182820188101715610f1557600080fd5b82525081516020918201929091019080838360005b83811015610f42578181015183820152602001610f2a565b50505050905090810190601f168015610f6f5780820380516001836020036101000a031916815260200191505b5060408181526060830151608084015160a090940151600354636eb1769f60e11b85523360048601523060248601529251919d50939b509299508b98506001600160a01b0316965063dd62ed3e95506044808201955060209450919250829003018186803b158015610fe057600080fd5b505afa158015610ff4573d6000803e3d6000fd5b505050506040513d602081101561100a57600080fd5b505110156110495760405162461bcd60e51b815260040180806020018281038252602681526020018061159c6026913960400191505060405180910390fd5b600354604080516370a0823160e01b8152336004820152905185926001600160a01b0316916370a08231916024808301926020929190829003018186803b15801561109357600080fd5b505afa1580156110a7573d6000803e3d6000fd5b505050506040513d60208110156110bd57600080fd5b505110156110fc5760405162461bcd60e51b81526004018080602001828103825260248152602001806116516024913960400191505060405180910390fd5b600354604080516370a0823160e01b815230600482015290516000926001600160a01b0316916370a08231916024808301926020929190829003018186803b15801561114757600080fd5b505afa15801561115b573d6000803e3d6000fd5b505050506040513d602081101561117157600080fd5b5051600354604080516323b872dd60e01b81523360048201523060248201526044810188905290519293506001600160a01b03909116916323b872dd916064808201926020929091908290030181600087803b1580156111d057600080fd5b505af11580156111e4573d6000803e3d6000fd5b505050506040513d60208110156111fa57600080fd5b5050600354604080516370a0823160e01b81523060048201529051838701926001600160a01b0316916370a08231916024808301926020929190829003018186803b15801561124857600080fd5b505afa15801561125c573d6000803e3d6000fd5b505050506040513d602081101561127257600080fd5b505110156112b15760405162461bcd60e51b815260040180806020018281038252602e81526020018061169d602e913960400191505060405180910390fd5b6003546002546040805163095ea7b360e01b81526001600160a01b039283166004820152602481018890529051919092169163095ea7b39160448083019260209291908290030181600087803b15801561130a57600080fd5b505af115801561131e573d6000803e3d6000fd5b505050506040513d602081101561133457600080fd5b50506002546040805163068f8fc160e41b81523360048201526024810188905290516001600160a01b03909216916368f8fc109160448082019260009290919082900301818387803b15801561138957600080fd5b505af115801561139d573d6000803e3d6000fd5b505050505050505050565b600254604080516331a9108f60e11b815260048101859052905133926001600160a01b031691636352211e916024808301926020929190829003018186803b1580156113f357600080fd5b505afa158015611407573d6000803e3d6000fd5b505050506040513d602081101561141d57600080fd5b50516001600160a01b0316146114645760405162461bcd60e51b81526004018080602001828103825260298152602001806115c26029913960400191505060405180910390fd5b6002546040805163020604bf60e21b815260048101859052905130926001600160a01b03169163081812fc916024808301926020929190829003018186803b1580156114af57600080fd5b505afa1580156114c3573d6000803e3d6000fd5b505050506040513d60208110156114d957600080fd5b50516001600160a01b0316146115205760405162461bcd60e51b81526004018080602001828103825260278152602001806115756027913960400191505060405180910390fd5b60025460408051630b8d27c360e01b8152600481018590526024810184905290516001600160a01b0390921691630b8d27c39160448082019260009290919082900301818387803b15801561075257600080fdfe4d41524b45543a20546f6b656e206973206e6f7420617070726f76656420746f204d41524b45544d41524b45543a2043616c6c6572206d75737420617070726f7665207746544d2066697273744d41524b45543a206f6e6c79206f776e6572206f6620746f6b656e2063616e2063616c6c20746869734d41524b45543a20546f6b656e20646f6573206e6f742061636365707420626964736f6e6c79206f776e6572206f6620746f6b656e2063616e2063616c6c20746869734d41524b45543a204269646465722068617320746f20617070726f76652045524332304d41524b45543a2043616c6c6572206d757374206861766520656e6f756768207746544d4d41524b45543a20424944204d4f5245205448414e20544845204d494e2042494420414d4f554e544d41524b45543a20436f6e747261637420646964206e6f7420726563697665207746544d2073616c6570726963654d41524b45543a2042696464657220646f65736e74206861766520656e6f7567682045524332304d41524b45543a20636f6e7472616374206469646e74207265636976652074686520636f727265637420746f6b656e732066726f6d20626964646572a26469706673582212204c886be5fa11105e7c58c5d5862a258b0bf97db3ca338acf47053ef4c180145b64736f6c63430007000033",
  "immutableReferences": {},
  "source": "// SPDX-License-Identifier: MIT\r\npragma solidity 0.7.0;\r\n\r\nimport \"@openzeppelin/contracts/token/ERC721/IERC721Receiver.sol\";\r\nimport \"@openzeppelin/contracts/token/ERC20/IERC20.sol\";\r\nimport \"@openzeppelin/contracts/access/Ownable.sol\";\r\nimport \"./interfaces/IWallToken.sol\";\r\n\r\n\r\ncontract WallMarket is IERC721Receiver {\r\n  \r\n    address admin; \r\n    uint DEFAULT_MIN_BID = 1*10^18;\r\n    IWallToken WallToken; \r\n    IERC20 wFTM; \r\n\r\n    constructor (\r\n        IWallToken _wallToken,\r\n        IERC20 _wftmAddress\r\n    ) {\r\n        WallToken = _wallToken;\r\n        wFTM = _wftmAddress;\r\n    }\r\n\r\n    function buyPiece (uint _id) public {\r\n        // get the salePrice and if onSale\r\n        (, , , , , , uint salePrice, bool onSale, bool acceptBids) = WallToken.getPiece(_id);\r\n        require(wFTM.allowance(msg.sender, address(this)) >= salePrice, 'MARKET: Caller must approve wFTM first');\r\n        require(wFTM.balanceOf(msg.sender) >= salePrice, 'MARKET: Caller must have enough wFTM');\r\n\r\n        // grab current balance \r\n        uint balanceBefore = wFTM.balanceOf(address(this)); \r\n\r\n        // transfer the salePrice from caller to MARKET contract\r\n        wFTM.transferFrom(msg.sender, address(this), salePrice);\r\n\r\n        // make shure the contract got the salePrice\r\n        require(wFTM.balanceOf(address(this)) >= (balanceBefore + salePrice), 'MARKET: Contract did not recive wFTM saleprice');\r\n\r\n        // approve the saleprice to WallToken\r\n        wFTM.approve(address(WallToken), salePrice);\r\n\r\n        // now that we have required everything and have transferd the saleprice to MARKET contract we can buy the token \r\n        WallToken.buyToken(msg.sender, _id);\r\n       \r\n    }\r\n\r\n    function acceptBidLastBidOnPiece(uint _id) public {\r\n        require(WallToken.ownerOf(_id) == msg.sender, 'only owner of token can call this');\r\n        require(WallToken.getApproved(_id) == address(this), 'MARKET: Token is not approved to MARKET');\r\n\r\n        (uint bidamount, address bidder) = WallToken.getLastBidOnPiece(_id);\r\n        require(wFTM.allowance(bidder, address(this)) >= bidamount ,'MARKET: Bidder has to approve ERC20');\r\n        require(wFTM.balanceOf(bidder) >= bidamount,'MARKET: Bidder doesnt have enough ERC20');\r\n\r\n        uint balancebefore = wFTM.balanceOf(address(this));\r\n        wFTM.transferFrom(bidder, address(this), bidamount);\r\n        require(wFTM.balanceOf(address(this)) == (balancebefore + bidamount), 'MARKET: contract didnt recive the correct tokens from bidder');\r\n        \r\n        wFTM.approve(address(WallToken), bidamount);\r\n        WallToken.acceptLastBid(_id);\r\n    }\r\n\r\n    function listPieceForSale(\r\n        uint _id,\r\n        uint _salePrice\r\n    ) public {\r\n        require(WallToken.ownerOf(_id) == msg.sender, 'MARKET: only owner of token can call this');\r\n        require(WallToken.getApproved(_id) == address(this), 'MARKET: Token is not approved to MARKET');\r\n        WallToken.setOnSale(_id, _salePrice);\r\n    }\r\n\r\n    function changeSalePrice(\r\n        uint _id, \r\n        uint _newSalePrice\r\n    ) public {\r\n        require(WallToken.ownerOf(_id) == msg.sender, 'only owner of token can call this');\r\n         WallToken.setNewSalePrice(_id, _newSalePrice);\r\n    }\r\n\r\n    function placeBid(\r\n        uint _id,\r\n        uint _bidPrice\r\n    ) public {\r\n        (, , , , , , , bool onSale, bool acceptBids) = WallToken.getPiece(_id);\r\n        require(onSale == true, 'MARKET: Token is not on sale');\r\n        require(acceptBids == true, 'MARKET: Token does not accept bids');\r\n\r\n        (uint lastbid, address lastBidder) = WallToken.getLastBidOnPiece(_id);\r\n        uint minBidAmount = lastbid + DEFAULT_MIN_BID;\r\n\r\n        require(_bidPrice > minBidAmount, 'MARKET: BID MORE THAN THE MIN BID AMOUNT');\r\n\r\n        wFTM.approve(address(this), _bidPrice);\r\n        WallToken.placeBid(_id, msg.sender, _bidPrice);\r\n    }\r\n\r\n\r\n    \r\n    /* ===== CALLBACK FUNCTIONS FOR ERC721  ==== */\r\n    \r\n    function onERC721Received(address, address, uint256, bytes calldata) external override returns (bytes4) {\r\n        // DO STUFF\r\n        return bytes4(keccak256(\"onERC721Received(address,address,uint256,bytes)\"));\r\n    }\r\n}",
  "sourcePath": "C:/Users/ROSTON/Documents/ETHEREUM-DEV/nft-wall/packages/truffle/contracts/WallMarket.sol",
  "compiler": {
    "name": "solc",
    "version": "0.7.0+commit.9e61f92b.Emscripten.clang"
  },
  "schemaVersion": "3.3.3",
  "updatedAt": "2021-03-15T21:36:25.105Z",
  "networkType": "ethereum",
  "devdoc": {
    "kind": "dev",
    "methods": {},
    "version": 1
  },
  "userdoc": {
    "kind": "user",
    "methods": {},
    "version": 1
  }
}