{
  "contractName": "WallBase",
  "abi": [
    {
      "anonymous": false,
      "inputs": [
        {
          "indexed": true,
          "internalType": "address",
          "name": "previousOwner",
          "type": "address"
        },
        {
          "indexed": true,
          "internalType": "address",
          "name": "newOwner",
          "type": "address"
        }
      ],
      "name": "OwnershipTransferred",
      "type": "event"
    },
    {
      "inputs": [],
      "name": "manager",
      "outputs": [
        {
          "internalType": "address",
          "name": "",
          "type": "address"
        }
      ],
      "stateMutability": "view",
      "type": "function"
    },
    {
      "inputs": [],
      "name": "owner",
      "outputs": [
        {
          "internalType": "address",
          "name": "",
          "type": "address"
        }
      ],
      "stateMutability": "view",
      "type": "function"
    },
    {
      "inputs": [],
      "name": "renounceOwnership",
      "outputs": [],
      "stateMutability": "nonpayable",
      "type": "function"
    },
    {
      "inputs": [
        {
          "internalType": "address",
          "name": "newOwner",
          "type": "address"
        }
      ],
      "name": "transferOwnership",
      "outputs": [],
      "stateMutability": "nonpayable",
      "type": "function"
    },
    {
      "inputs": [
        {
          "internalType": "address",
          "name": "newManager",
          "type": "address"
        }
      ],
      "name": "setManager",
      "outputs": [],
      "stateMutability": "nonpayable",
      "type": "function"
    }
  ],
  "bytecode": "0x608060405234801561001057600080fd5b50600061001b61006a565b600080546001600160a01b0319166001600160a01b0383169081178255604051929350917f8be0079c531659141344cd1fd0a4f28419497f9722a3daafe3b4186f6b6457e0908290a35061006e565b3390565b6103cd8061007d6000396000f3fe608060405234801561001057600080fd5b50600436106100575760003560e01c8063481c6a751461005c578063715018a6146100805780638da5cb5b1461008a578063d0ebdbe714610092578063f2fde38b146100b8575b600080fd5b6100646100de565b604080516001600160a01b039092168252519081900360200190f35b6100886100ed565b005b6100646101ab565b610088600480360360208110156100a857600080fd5b50356001600160a01b03166101ba565b610088600480360360208110156100ce57600080fd5b50356001600160a01b0316610225565b6001546001600160a01b031681565b6100f5610339565b6001600160a01b03166101066101ab565b6001600160a01b031614610161576040805162461bcd60e51b815260206004820181905260248201527f4f776e61626c653a2063616c6c6572206973206e6f7420746865206f776e6572604482015290519081900360640190fd5b600080546040516001600160a01b03909116907f8be0079c531659141344cd1fd0a4f28419497f9722a3daafe3b4186f6b6457e0908390a3600080546001600160a01b0319169055565b6000546001600160a01b031690565b6001546001600160a01b031633146102035760405162461bcd60e51b81526004018080602001828103825260348152602001806103646034913960400191505060405180910390fd5b600180546001600160a01b0319166001600160a01b0392909216919091179055565b61022d610339565b6001600160a01b031661023e6101ab565b6001600160a01b031614610299576040805162461bcd60e51b815260206004820181905260248201527f4f776e61626c653a2063616c6c6572206973206e6f7420746865206f776e6572604482015290519081900360640190fd5b6001600160a01b0381166102de5760405162461bcd60e51b815260040180806020018281038252602681526020018061033e6026913960400191505060405180910390fd5b600080546040516001600160a01b03808516939216917f8be0079c531659141344cd1fd0a4f28419497f9722a3daafe3b4186f6b6457e091a3600080546001600160a01b0319166001600160a01b0392909216919091179055565b339056fe4f776e61626c653a206e6577206f776e657220697320746865207a65726f2061646472657373457363726f7742757965723a204f6e6c7920746865206d616e616765722063616e2063616c6c20746869732066756e6374696f6ea2646970667358221220a1a49d94590b9d2ae3753949cf2b488ba11d47eb9dd6a3306aa0ecf0b82ca3f164736f6c63430007000033",
  "immutableReferences": {},
  "source": "// SPDX-License-Identifier: MIT\r\npragma solidity 0.7.0;\r\n\r\nimport \"@openzeppelin/contracts/math/SafeMath.sol\";\r\nimport \"@openzeppelin/contracts/access/Ownable.sol\";\r\n\r\n\r\ncontract WallBase is Ownable {\r\n    using SafeMath for uint256;\r\n    \r\n    /* ===== ERSCROW PARAMETERS ===== */\r\n\r\n    /*\r\n     *  address of the manager of the contract\r\n     */\r\n    address public manager; \r\n\r\n    struct Bid {\r\n        address bidder; \r\n        uint bidAmount;\r\n    }\r\n\r\n    /*\r\n     *  internal array that holds all the info of the NFT's\r\n     */\r\n    Piece[] internal allPieces;\r\n\r\n    /*\r\n     *  struct that holds all the info of the NFT's\r\n     */\r\n    struct Piece {\r\n        string name;\r\n        address artist;\r\n        uint royalties;\r\n        uint salePrice; \r\n        bool onSale;\r\n        bool acceptBids; \r\n        Bid lastBid;\r\n    }\r\n    \r\n    /* ====== MANAGER FUNCTIONS ====== */\r\n\r\n    /*\r\n     *  Sets a new Manager \r\n     */\r\n    function setManager(address newManager) external onlyManager {\r\n        manager = newManager;\r\n\r\n    }\r\n\r\n    /* ====== MODIFIERS ====== */\r\n    /*\r\n     *  The manager is the one that controls all the parameters of this contract except the withdrawl function\r\n     *  this is meant to be called by the Buyer only after the period has ended. \r\n     */\r\n    modifier onlyManager() {\r\n        require(manager == msg.sender, \"EscrowBuyer: Only the manager can call this function\");\r\n        _; \r\n    }\r\n    \r\n}",
  "sourcePath": "C:\\Users\\ROSTON\\Documents\\ETHEREUM-DEV\\nft-wall\\packages\\truffle\\contracts\\WallBase.sol",
  "compiler": {
    "name": "solc",
    "version": "0.7.0+commit.9e61f92b.Emscripten.clang"
  },
  "schemaVersion": "3.3.3",
  "updatedAt": "2021-03-15T21:33:44.008Z",
  "devdoc": {
    "kind": "dev",
    "methods": {
      "owner()": {
        "details": "Returns the address of the current owner."
      },
      "renounceOwnership()": {
        "details": "Leaves the contract without owner. It will not be possible to call `onlyOwner` functions anymore. Can only be called by the current owner. NOTE: Renouncing ownership will leave the contract without an owner, thereby removing any functionality that is only available to the owner."
      },
      "transferOwnership(address)": {
        "details": "Transfers ownership of the contract to a new account (`newOwner`). Can only be called by the current owner."
      }
    },
    "version": 1
  },
  "userdoc": {
    "kind": "user",
    "methods": {},
    "version": 1
  }
}